:100000000C945A030C9482030C9482030C94820384
:100010000C9482030C9482030C9482030C9482034C
:100020000C9482030C9482030C9482030C9482033C
:100030000C9482030C9482030C9482030C9482032C
:100040000C94E5110C9482030C94B3110C948D1153
:100050000C9482030C9482030C9482030C9482030C
:100060000C942F120C94820300407A10F35A00A0D3
:10007000724E18090010A5D4E80000E87648170071
:1000800000E40B54020000CA9A3B000000E1F505B1
:10009000000080969800000040420F000000A086FB
:1000A00001000000102700000000E803000000002D
:1000B0006400000000000A000000000001000000D1
:1000C00000002C76D888DC674F0823DFC1DFAE59EB
:1000D000E1B1B796E5E3E453C63AE651997696E87E
:1000E000E6C28426EB898C9B62ED407C6FFCEFBC02
:1000F0009C9F40F2BAA56FA5F490055A2AF75C932D
:100100006B6CF9676DC11BFCE0E40D47FEF520E662
:10011000B500D0ED902E0300943577050080841E45
:10012000080000204E0A000000C80C333333330FA0
:10013000986E12831141EF8D2114893BE65516CF3D
:10014000FEE6DB18D1844B381BF77C1D901DA4BB49
:10015000E424203284725E228100C9F124ECA1E5FE
:100160003D2700000000003E5B4F5B3E3E6B4F6B47
:100170003E1C3E7C3E1C183C7E3C181C577D571C88
:100180001C5E7F5E1C00183C1800FFE7C3E7FF0001
:1001900018241800FFE7DBE7FF30483A060E26294F
:1001A000792926407F050507407F05253F5A3CE712
:1001B0003C5A7F3E1C1C08081C1C3E7F14227F22D8
:1001C000145F5F005F5F06097F017F006689956AA3
:1001D000606060606094A2FFA29408047E0408102E
:1001E000207E201008082A1C08081C2A08081E1057
:1001F0001010100C1E0C1E0C30383E3830060E3E0F
:100200000E06000000000000005F0000000700076D
:1002100000147F147F14242A7F2A12231308646297
:1002200036495620500008070300001C22410000F8
:1002300041221C002A1C7F1C2A08083E0808008056
:1002400070300008080808080000606000201008EE
:1002500004023E5149453E00427F400072494949EF
:10026000462141494D331814127F10274545453921
:100270003C4A494931412111090736494949364625
:100280004949291E00001400000040340000000805
:1002900014224114141414140041221408020159A8
:1002A00009063E415D594E7C1211127C7F49494935
:1002B000363E414141227F4141413E7F49494941CA
:1002C0007F090909013E414151737F0808087F00F9
:1002D000417F41002040413F017F081422417F407F
:1002E0004040407F021C027F7F0408107F3E414156
:1002F000413E7F090909063E4151215E7F091929C6
:1003000046264949493203017F01033F4040403FAF
:100310001F2040201F3F4038403F631408146303F0
:10032000047804036159494D43007F41414102046F
:10033000081020004141417F040201020440404076
:100340004040000307080020545478407F2844446C
:10035000383844444428384444287F385454541886
:1003600000087E090218A4A49C787F080404780081
:10037000447D40002040403D007F10284400004163
:100380007F40007C047804787C0804047838444476
:100390004438FC1824241818242418FC7C0804046D
:1003A00008485454542404043F44243C4040207CD6
:1003B0001C2040201C3C4030403C44281028444C29
:1003C0009090907C4464544C4400083641000000F6
:1003D000770000004136080002010204023C262397
:1003E000263C1EA1A161123A4040207A385454554F
:1003F0005921555579412254547842215554784019
:1004000020545579400C1E527212395555555939A0
:100410005454545939555454580000457C410002F5
:10042000457D420001457C407D1211127DF028255A
:1004300028F07C545545002054547C547C0A097F94
:100440004932494949323A4444443A324A484830A8
:100450003A4141217A3A42402078009DA0A07D3D5A
:100460004242423D3D4040403D3C24FF2424487EE2
:100470004943662B2FFC2F2BFF0929F620C0887ECD
:10048000090320545479410000447D413048484AD2
:1004900032384040227A007A0A0A727D0D19317D85
:1004A0002629292F28262929292630484D40203859
:1004B0000808080808080808382F10C8ACBA2F1018
:1004C0002834FA00007B000008142A142222142A7F
:1004D00014085500550055AA55AA55AAFF55FF55B1
:1004E000FF000000FF00101010FF00141414FF00A4
:1004F0001010FF00FF1010F010F0141414FC001482
:1005000014F700FF0000FF00FF1414F404FC14149F
:1005100017101F10101F101F1414141F001010109C
:10052000F0000000001F101010101F10101010F02D
:1005300010000000FF101010101010101010FF100D
:10054000000000FF140000FF00FF00001F10170054
:1005500000FC04F414141710171414F404F400002D
:10056000FF00F714141414141414F700F7141414DF
:10057000171410101F101F141414F4141010F0107E
:10058000F000001F101F0000001F14000000FC14EA
:100590000000F010F01010FF10FF141414FF1410DE
:1005A00010101F00000000F010FFFFFFFFFFF0F031
:1005B000F0F0F0FFFFFF0000000000FFFF0F0F0F43
:1005C0000F0F3844443844FC4A4A4A347E0202063B
:1005D00006027E027E0263554941633844443C046E
:1005E000407E201E2006027E020299A5E7A5991CE6
:1005F0002A492A1C4C7201724C304A4D4D30304809
:10060000784830BC625A463D3E494949007E010166
:10061000017E2A2A2A2A2A44445F444440514A44FB
:100620004040444A51400000FF0103E080FF0000C9
:1006300008086B6B083612362436060F090F0600C1
:100640000018180000001010003040FF0101001FCA
:1006500001011E00191D1712003C3C3C3C0000002B
:100660000000000000080002010000030407000071
:1006700000000000000000000000240027002A0005
:100680000102040810204080010204081020010229
:100690000408102000000000250028002B0004049E
:1006A000040404040404020202020202030303031A
:1006B00003034A1311241FBECFEFD8E0DEBFCDBF26
:1006C00025E0AAEDB3E001C01D92AD32B207E1F71B
:1006D00013E0A0E0B1E0E4E8FEE302C005900D9273
:1006E000AA3DB107D9F713E0CAE5D3E004C02197CA
:1006F000FE010E94431DC935D107C9F70E94151498
:100700000C94401F0C940000FC0120812EBD0DB400
:1007100007FEFDCF2EB5FC0120830895AF92BF9256
:10072000CF92DF92EF92FF920F931F93CF93DF93BD
:100730006C017B018B01040F151FEB015E01AE18EC
:10074000BF08C017D10759F06991D601ED91FC910E
:100750000190F081E02DC6010995892B79F7C5013B
:10076000DF91CF911F910F91FF90EF90DF90CF908D
:10077000BF90AF900895FC014481558160817181E3
:1007800082E095E00C948E03FC01538D448D252F5F
:1007900030E0842F90E0821B930B541710F0CF961B
:1007A000089501970895FC01918D828D981761F04D
:1007B000A28DAE0FBF2FB11D5D968C91928D9F5F64
:1007C0009F73928F90E008958FEF9FEF0895FC0143
:1007D000918D828D981731F0828DE80FF11D858DF6
:1007E00090E008958FEF9FEF0895FC01918D228D89
:1007F000892F90E0805C9F4F821B91098F7399270E
:10080000089585E694E00E94F50321E0892B09F420
:1008100020E0822F089580E090E0892B29F00E944B
:10082000010481110C9400000895FC01A48DA80F0F
:10083000B92FB11DA35ABF4F2C91848D90E0019622
:100840008F739927848FA689B7892C93A089B18942
:100850008C91837080648C93938D848D981306C0E3
:100860000288F389E02D80818F7D80830895EF9247
:10087000FF920F931F93CF93DF93EC0181E0888F5A
:100880009B8D8C8D98131AC0E889F989808185FF2A
:1008900015C09FB7F894EE89FF896083E889F989CC
:1008A00080818370806480839FBF81E090E0DF91CE
:1008B000CF911F910F91FF90EF900895F62E0B8D21
:1008C00010E00F5F1F4F0F731127E02E8C8D8E11DC
:1008D0000CC00FB607FCFACFE889F989808185FF43
:1008E000F5CFCE010E941504F1CFEB8DEC0FFD2F5B
:1008F000F11DE35AFF4FF0829FB7F8940B8FEA89FE
:10090000FB8980818062CFCFCF93DF93EC01888D0C
:100910008823B9F0AA89BB89E889F9898C9185FD7A
:1009200003C0808186FD0DC00FB607FCF7CF8C9108
:1009300085FFF2CF808185FFEDCFCE010E941504A7
:10094000E9CFDF91CF91089590E0FC01EE59F94F86
:100950002491FC01E058F94F3491FC01E256F94F23
:10096000E491EE23C9F0222339F0233001F1A8F4F9
:10097000213019F1223029F1F0E0EE0FFF1FEC5683
:10098000F94FA591B4918FB7F894EC91611126C0FD
:1009900030953E233C938FBF08952730A9F028302F
:1009A000C9F0243049F7809180008F7D03C0809189
:1009B00080008F7780938000DFCF84B58F7784BDF0
:1009C000DBCF84B58F7DFBCF8091B0008F77809394
:1009D000B000D2CF8091B0008F7DF9CF3E2BDACF1F
:1009E000CF93DF9390E0FC01E058F94F24918256B9
:1009F000994FFC0184918823D1F090E0880F991FD2
:100A0000FC01EA58F94FA591B491FC01EC56F94F5D
:100A1000C591D49161110EC09FB7F8948C91E22FCB
:100A2000E0958E238C932881E223E8839FBFDF919A
:100A3000CF9108958FB7F894EC91E22BEC938FBF90
:100A4000F6CF8E3008F08E508770806480937C00E3
:100A500080917A00806480937A0080917A0086FD8C
:100A6000FCCF8091780090917900089582309105B3
:100A700038F0880F991F880F991F05970197F1F794
:100A800008959F92AF92BF92CF92DF92EF92FF9222
:100A90000F931F93CF93DF93EC016B0188859985AA
:100AA00011E0892B09F010E8F601A0808A2D81233E
:100AB000992493948111912C2C813D814E815F81E9
:100AC00060E271EA87E090E00E940D1D022FB12CD8
:100AD000E22EF12C002319F0C7010E9436058A8509
:100AE000877F09F04FC08D858F3F89F09A2D912324
:100AF00081E009F480E0891551F0EF85F8898F894C
:100B00009923D1F19081892B808399249394E98949
:100B1000FA898081998D892B8083002319F0C70180
:100B20000E9436058E858F3F39F0EB89FC898081E4
:100B3000988D892309F0B12AE989FA899081898DF4
:100B40008095892380838E858F3F11F0F601B082D6
:100B500088859985892B09F044C0110F1111BACFEE
:100B6000DF91CF911F910F91FF90EF90DF90CF9089
:100B7000BF90AF909F900895908180958923808346
:100B8000912CC5CFE989FA898081998D892B808341
:100B9000002319F0C7010E9436058D858F3F49F06B
:100BA000EF85F8898F899A2D9123B9F09081892B4F
:100BB0008083E989FA899081898D80958923808352
:100BC0008E858F3F09F4BFCFEB89FC898081988D9A
:100BD000892309F4B8CFB12AB6CF908180958923B3
:100BE000E7CF1695BBCFAF92BF92CF92DF92EF9235
:100BF000FF920F931F93CF93DF931F92CDB7DEB772
:100C00008C015B016A01DC018D919C911197892B0C
:100C100039F01296ED91FC91908181819CBD8DBD42
:100C2000F80183858F3F19F060E00E94A4047501EC
:100C3000CA0CDB1CCE14DF04A9F0D7018D917D0115
:100C40008983F80180819181892B29F0CE01019659
:100C50000E948403EFCFBE016F5F7F4FC8010E94E7
:100C60004105E8CFD8011B968C918F3F19F061E0C8
:100C70000E94A40481E00F90DF91CF911F910F910A
:100C8000FF90EF90DF90CF90BF90AF9008953FB767
:100C9000F8948091500490915104A0915204B09125
:100CA000530426B5A89B05C02F3F19F00196A11D3E
:100CB000B11D3FBFBA2FA92F982F8827BC01CD01A6
:100CC000620F711D811D911D42E0660F771F881F05
:100CD000991F4A95D1F708958F929F92AF92BF9234
:100CE000CF92DF92EF92FF924B015C010E94470688
:100CF0006B017C010E9447066C197D098E099F09D2
:100D0000683E734081059105A8F321E0821A91089D
:100D1000A108B10888EEC80E83E0D81EE11CF11CC2
:100D200081149104A104B10429F7FF90EF90DF90A2
:100D3000CF90BF90AF909F908F9008950F931F9387
:100D4000CF93DF931F92CDB7DEB78C01698360E04C
:100D5000FC01868D0E94A40441E050E0BE016F5F5B
:100D60007F4FF801838D948D0E94F3050F90DF91E2
:100D7000CF911F910F910895CF93C82F87FDCFE793
:100D8000C093210561E282E095E00E949E066C2FEF
:100D9000606882E095E00E949E0660E282E095E055
:100DA000CF910C949E06CF9380911F0587FD13C0B1
:100DB00061E00E94F00460E080911F050E94A4049D
:100DC00061E070E080E090E00E946C0661E080915C
:100DD0001F050E94A404C0912205C83008F0C7E096
:100DE000C093220561E282E095E00E949E066C2F8E
:100DF000606182E095E00E949E0660E282E095E0FC
:100E00000E949E06809121050E94BC0660E282E05D
:100E100095E00E949E066CE082E095E0CF910C94F4
:100E20009E06FF920F931F93CF93DF93909123051C
:100E3000992339F0809124058F5F8917E8F5809315
:100E40002405D0912705D695D695D69584E5D89FCB
:100E500080011124809128058695869586958D17A9
:100E600080F16D2F606482E095E00E949E06C09143
:100E70002505F09026056C2F606882E095E00E94C1
:100E80009E0661E0809120050E94A4044F2D50E051
:100E90006C2F70E0461B570B4F5F5F4F600F711F49
:100EA00060507F4F80911D0590911E050E94F305B3
:100EB000DF5F0C5A1F4FCECF109224050E94D3063D
:100EC000C0CF60E482E095E00E949E0683E58093B7
:100ED0002505109226058FE280932705109228059C
:100EE000DF91CF911F910F91FF9008951F93CF93A2
:100EF000DF93EC01162F60E20E949E066CE0111158
:100F00006DE0CE01DF91CF911F910C949E06FC0104
:100F100077FD55C080859185681779070CF04FC023
:100F200057FD4DC082859385481759070CF047C07F
:100F30008689823009F444C0833009F44EC0813080
:100F400031F48FE290E0861B970BBA01AC01842F3D
:100F5000A62F93A1691708F4962F93A394A19A172B
:100F600008F49A2F94A395A1891708F4982F95A3B4
:100F700096A1981708F4982F96A3CA0157FD0796D3
:100F8000E3E095958795EA95E1F7A4E5A89FF00140
:100F9000A99FF00D1124E60FF71FE050FF4FCA0183
:100FA00068E070E00E94F91C41E050E001C0440F8D
:100FB0008A95EAF78081232BB9F0842B80830895EA
:100FC00083E590E0DC01A61BB70BBD018FE290E04A
:100FD000DC01A41BB50BAD01BACF83E590E0841B07
:100FE000950BAB01BC01B3CF40958423E7CF209193
:100FF0000104260F3327331F21323105ECF42091F1
:101000002504FC0190E080E0243069F082E008953E
:10101000A09101042191AC014F515C4FA40FB52F59
:10102000B11D2C930196861798F380910104680FE7
:101030006093010480E0089581E0089508958FEFA2
:101040009FEF08958FEF9FEF08958091DA0390E06E
:101050009195819591090895CF93DF93CB01EA0192
:10106000642F0E94F707CE01DF91CF910895CF93AF
:10107000DF931F92CDB7DEB7698361E0CE010196A1
:101080000E94F70781E090E00F90DF91CF910895E3
:101090000895FC016370668B848195812681378178
:1010A000613039F0633029F0918780873387228758
:1010B0000895318720879387828708952F923F92E2
:1010C0004F925F926F927F928F929F92AF92BF9258
:1010D000CF92DF92EF92FF920F931F93CF93DF9304
:1010E000CDB7DEB76A970FB6F894DEBF0FBECDBF9F
:1010F0009A8F898F7A8369834A01D22E18870F834A
:101100003701BC2CDC0159962D913C915A97211541
:10111000310509F015C118968D919C9119976817A2
:1011200079070CF0D7C11A968D919C9148175907F1
:101130000CF0D0C14C2C512CB6E0CB9E600D711D33
:1011400011247C876B87161617060CF0C3C1EA2D95
:10115000F0E0FA87E98793E0EE0FFF1F9A95E1F739
:10116000F88BEF87CF01840F951F181619060CF026
:10117000B1C1A98DBA8D58968C91811104C0BFEA76
:10118000BD1508F4D394A98DBA8DED91FC911197FA
:101190000284F385E02DCD010995B5E0DB9EC00109
:1011A0001124E981FA81FC83EB83312C212C9C01F1
:1011B0002E593E4F388F2F8B4A2D50E05E8B4D8B32
:1011C000EF89F88DE20DF31D44919E828D82D12C22
:1011D000C12C69817A81620D731D7A8B698B842F92
:1011E00090E09C8B8B8BE98DFA8DA081B18140FFC3
:1011F00082C0F1E0BF126FC0AF126DC01C96ED91BE
:10120000FC912F813885A4014C0D5D1D69897A8977
:10121000898D9A8D0995EB89FC89F595E7954E2F77
:101220005FEFC51AD50A6D817E818D899E89680F11
:10123000791F7E836D8398E0C916D10481F6AFEFE4
:101240002A1A3A0AEB81FC81E40DF51DFC83EB833D
:10125000F5E02F16310409F0B3CF2F81388526151C
:101260003705B9F0A98DBA8DED91FC91B1E0BB12B3
:1012700057C0AB1255C069817A816B5F7F4F008880
:10128000F189E02D830128E030E0A401898D9A8D59
:101290000995A98DBA8DED91FC9111970688F78972
:1012A000E02DCD016A960FB6F894DEBF0FBECDBF1C
:1012B000DF91CF911F910F91FF90EF90DF90CF9032
:1012C000BF90AF909F908F907F906F905F904F9066
:1012D0003F902F9009941E96ED91FC91EF80F88439
:1012E00009851A8592014D815E816B817C81898D92
:1012F0009A8D099590CF2F8138852615370509F4E9
:101300008ACF31E0B31207C0A31205C01C96ED913D
:10131000FC91930178CF1E96ED91FC917301E0CF83
:101320006B857C85641975090684F785E02D73014A
:101330000F8518899201A401898D9A8D0995A9CFED
:10134000F90134969491329745915491D91AB7E0A6
:10135000DB9E400D511D1124F901259134913C8BE8
:101360002B8BFA0125903490FA01329674903196C5
:101370003491398B329664903196449041E04C150B
:1013800018F04A1508F07FC0662D062C000C770B6C
:101390007C836B83842D042C000C990B9E838D839E
:1013A000A98DBA8DED91FC9111970284F385E02D02
:1013B000CD010995512CD12CC12CEA2DF0E0FA87F2
:1013C000E9872B2D30E03C872B87A401440D511D6C
:1013D00047FC5A95588F4F8B69817A81660D711D34
:1013E00067FC7A957E876D877989C71608F051CF9B
:1013F0002C2D30E04D815E81420F531FA985BA85A7
:101400004A9FC0014B9F900D5A9F900D1124FC01E3
:10141000E80DF91DF88BEF87852D612C4F89588DCC
:10142000420F531F5E8B4D8B671408F050C044244D
:101430004394480E877041F4C1010196EB89FC8901
:10144000E20DF31DD4901C01D7FE19C0A98DBA8DF1
:10145000ED91FC91662D70E0B1E0BB1219C0AB12AA
:1014600017C02D853E85620F731F0484F585E02D1E
:101470002F8138854D895E89898D9A8D0995DD0C7E
:101480006394842DD1CF1E821D821C821B8288CF43
:101490004B815C81640F751FAB85BC856A9FC00161
:1014A0006B9F900D7A9F900D112469817A81680F4E
:1014B000791F0684F785E02DEF80F88409851A8569
:1014C0009D014F855889898D9A8D0995D8CF570CE4
:1014D000C3948ACF6A960FB6F894DEBF0FBECDBF15
:1014E000DF91CF911F910F91FF90EF90DF90CF9000
:1014F000BF90AF909F908F907F906F905F904F9034
:101500003F902F9008958F929F92AF92CF92EF923B
:10151000FF920F931F93CF93DF93EC01262F898DBA
:101520009A8D009709F051C06A30D1F41D861C864F
:101530008D8948E0849F900111248E859F85820FBC
:10154000931F9F878E8781E090E0DF91CF911F915D
:101550000F91FF90EF90CF90AF909F908F90089554
:101560006D3089F3CC88AD888F898823C1F08C8554
:101570009D8536E0C39E800D911D112448855985B7
:101580004817590764F44E855F851D861C8638E030
:10159000A39EC0011124840F951F9F878E87EA8820
:1015A000FB88088919894E855F856C857D85CE010C
:1015B0000E945E082C898C859D8546E0249F800DC5
:1015C000911D11249D878C87BECF6A3069F41D86DA
:1015D0001C86FC013896E4912D898E859F85E29FBB
:1015E000800D911D1124ADCF6D3009F4ACCFFC01FD
:1015F00034963491631708F4A6CF3296E491E61737
:1016000008F4A1CFFC01329685909490462F431B9D
:10161000342F47E0349F800C911C1124F401329642
:1016200034913196E4913323A9F1EE2399F1CC88DA
:10163000F4013596E491AD884F89442301F10E2ED3
:10164000000CFF0BE30FF11DCE9EA001CF9E500DAD
:1016500011246C857D85460F571F68857985641731
:1016600075076CF44E855F851D861C86FC013896D7
:10167000E491AE9E400D511D11245F874E87EA888C
:10168000FB88088919894E855F856C857D85CE012B
:101690000E945E08F4013496E4912C898C859D8526
:1016A000E29F800D911D11248DCF6F927F928F92BA
:1016B0009F92AF92BF92CF92DF92EF92FF920F93E1
:1016C0001F93CF93DF93EC016B015A01390148015D
:1016D000E881F9810284F385E02D0995E881F9819B
:1016E0000288F389E02D87019301A501B601CE019F
:1016F0000995A501480D591D41505109E881F9810D
:101700000288F389E02D9301B601CE010995E881A5
:10171000F9810088F189E02D9401A501B601CE017F
:101720000995C60CD71CB60161507109E881F98191
:101730000088F189E02D9401A501CE010995E88189
:10174000F9810688F789E02DCE01DF91CF911F91B5
:101750000F91FF90EF90DF90CF90BF90AF909F9050
:101760008F907F906F9009946F927F928F929F924B
:10177000AF92BF92CF92DF92EF92FF920F931F939F
:10178000CF93DF935C01EB016A01490138018701C6
:10179000DC01ED91FC916217730719F5641675066B
:1017A0002CF0962D872D3A01C92ED82E9601261998
:1017B00037092F5F3F4F048CF58DE02DA301BE014B
:1017C000C5010995DF91CF911F910F91FF90EF9087
:1017D000DF90CF90BF90AF909F908F907F906F9051
:1017E00008954615570591F42617370724F0892DDB
:1017F0004B01C22FD82F9E01281939092F5F3F4F67
:10180000068CF78DE02DA601B401DACF0284F385B2
:10181000E02D0995D501ED91FC910488F589E02D25
:1018200083019401A601BE01C5010995D501ED9181
:10183000FC910688F789E02DC501DF91CF911F91BA
:101840000F91FF90EF90DF90CF90BF90AF909F905F
:101850008F907F906F900994EF92FF920F931F9358
:10186000DC011A960D911C911B9718962D913C91B5
:101870001997ED91FC9100A0F1A1E02D7B0150E0C2
:1018800040E070E060E009951F910F91FF90EF90AC
:1018900008954F925F926F927F928F929F92AF9234
:1018A000BF92CF92DF92EF92FF920F931F93CF934D
:1018B000DF936C012B015A0139014801DC01ED91E4
:1018C000FC910284F385E02D0995E201640C751CFE
:1018D000D601ED91FC91C615D7055CF40088F1891D
:1018E000E02D87019401A501BE01C601099521964D
:1018F000EFCF0688F789E02DC601DF91CF911F91C8
:101900000F91FF90EF90DF90CF90BF90AF909F909E
:101910008F907F906F905F904F9009948F929F92DD
:10192000AF92BF92CF92DF92EF92FF920F931F93ED
:10193000CF93DF93EC015B014A016901E881F981F2
:101940000284F385E02D099595012C0D3D1D215054
:101950003109E881F9810488F589E02D7801840155
:10196000A401B501CE010995E881F9810688F789BE
:10197000E02DCE01DF91CF911F910F91FF90EF905D
:10198000DF90CF90BF90AF909F908F9009948F92EF
:101990009F92AF92BF92CF92DF92EF92FF920F93FE
:1019A0001F93CF93DF93EC015B014A01690178013A
:1019B000E881F9810284F385E02D0995C80CD91CD2
:1019C000860101501109E881F9810488F589E02D2B
:1019D0009501A401B501CE010995E881F981068838
:1019E000F789E02DCE01DF91CF911F910F91FF90EC
:1019F000EF90DF90CF90BF90AF909F908F90099421
:101A0000EF92FF920F931F93DC01ED91FC9100A0E8
:101A1000F1A1E02D09951F910F91FF90EF9008958E
:101A20000F931F93DC01ED91FC91068CF78DE02D57
:101A300009951F910F9108950F931F93DC01ED916C
:101A4000FC91048CF58DE02D09951F910F9108955F
:101A5000DC01ED91FC910084F185E02D09942F9239
:101A60003F924F925F926F927F928F929F92AF922E
:101A7000BF92CF92DF92EF92FF920F931F93CF937B
:101A8000DF9300D000D000D0CDB7DEB73C016A01B3
:101A90003E832D83FC82EB825801A41AB50AB7FE5F
:101AA00003C0B194A194B1088D809E80861A970AD4
:101AB00097FE03C09194819491088A149B045CF072
:101AC000902F812F0D811E819D838E839C2D8D2DC6
:101AD0006B01692F782F0C151D055CF09D818E819F
:101AE0007E836D83692F782F902F812F8601C92ED9
:101AF000D82E1601201A310A2B012D813E81421A5F
:101B0000530A57FE03C0519441945108710137FEA6
:101B100003C03FEFE31AF30AF594E7948D819E81A9
:101B2000861797075CF5A1E0B0E0BA83A983C016D9
:101B3000D1064CF1D301ED91FC910484F585E02DA3
:101B40002B813C81A8016D817E818A149B041CF04D
:101B50004D815E81B801C3010995E418F508F7FECF
:101B60000AC02D813E8189819A81280F391F3E83C9
:101B70002D83E20CF31C0F5F1F4FD9CF2FEF3FEFE8
:101B80003A832983D4CF26960FB6F894DEBF0FBED2
:101B9000CDBFDF91CF911F910F91FF90EF90DF901C
:101BA000CF90BF90AF909F908F907F906F905F90FD
:101BB0004F903F902F900895089590E080E0089511
:101BC0004F925F926F927F92AF92BF92CF92DF92CD
:101BD000EF92FF920F931F93CF93DF93CDB7DEB7B2
:101BE00028970FB6F894DEBF0FBECDBF2D833E837E
:101BF0004F83588727013801298D3A8D4B8D5C8D95
:101C000029833A834B835C830E94EF1C61E01816A2
:101C10000CF060E088E00E94A4042D813E814F8199
:101C2000588569817A818B819C810E94861A61E046
:101C300087FF60E089E00E94A404A301920169810A
:101C40007A818B819C810E94861A61E087FF60E027
:101C50008AE00E94A404A601950169817A818B81A2
:101C60009C810E94861A61E087FF60E08BE02896E5
:101C70000FB6F894DEBF0FBECDBFDF91CF911F919D
:101C80000F91FF90EF90DF90CF90BF90AF907F903B
:101C90006F905F904F900C94A4044F925F926F925C
:101CA0007F928F929F92AF92BF92CF92DF92EF92EC
:101CB000FF920F931F93CF93DF932B013C0184E698
:101CC000E82EF12C00E010E0D0E0C0E093E5A92E72
:101CD00092E0B92EC301B2010E94C01C862F0E945F
:101CE0002105BC01990F880B990B0E948D1A28EED3
:101CF0003FE94FEB51EC0E94EC1A4B016C0198014B
:101D00004D2F5C2F0E94EF1C18161CF48401DC2D53
:101D1000CD2DC5010197F1F781E0E81AF108D1F660
:101D2000B8018D2F9C2FDF91CF911F910F91FF90C4
:101D3000EF90DF90CF90BF90AF909F908F907F906B
:101D40006F905F904F900895E0E0F1E088EF91E0B0
:101D5000DF019C011D9221503040E1F710922505D2
:101D600080912605833508F483E58093260510923B
:101D70002705809128058F3208F48FE2809328058B
:101D800010920F0510920E05109211051092100579
:101D90000895FB0101900020E9F73197AF01461B40
:101DA000570BDC01ED91FC910280F381E02D099449
:101DB0008F929F92AF92BF920F931F93CF93DF9317
:101DC000CDB7DEB7A1970FB6F894DEBF0FBECDBF7B
:101DD00019A2423008F44AE08E010F5D1F4F842E95
:101DE000912CB12CA12CA50194010E940D1DE62F70
:101DF000B901CA01EA3004F5E05DD801EE938D0126
:101E0000232B242B252B79F790E080E0109729F0E5
:101E1000BD0185E694E00E94C90EA1960FB6F89424
:101E2000DEBF0FBECDBFDF91CF911F910F91BF904D
:101E3000AF909F908F900895E95CDFCF0F931F9331
:101E4000CF93DF93EC010E94C90E8C016CE373E029
:101E5000CE010E94C90E800F911FDF91CF911F917B
:101E60000F9108954F925F926F927F928F929F92FF
:101E7000AF92BF92CF92DF92EF92FF926B017C0103
:101E8000AC019B010E94F41C6FE373E081111AC046
:101E900046015701E894B7F82FEF3FEF4FE75FE7B0
:101EA000C501B4010E94F41C811126C02FEF3FEF41
:101EB0004FE75FE7C501B4010E94861A1816E4F4E3
:101EC00063E473E085E694E00E94C90E7C016CE354
:101ED00073E085E694E00E94C90E8E0D9F1DFF9071
:101EE000EF90DF90CF90BF90AF909F908F907F90BA
:101EF0006F905F904F9008952FEF3FEF4FE75FE4B3
:101F0000C701B6010E94EF1C18161CF467E473E0C9
:101F1000D9CF2FEF3FEF4FE75FECC701B6010E942B
:101F2000861A87FDF3CF20E030E0A901C701B60192
:101F30000E94861AB12CA12C87FF0AC06DE285E6AB
:101F400094E00E9437045C01F7FAF094F7F8F094FB
:101F50002AE037ED43EA5BE3C701B6010E94E21BCA
:101F60002B013C010E94C01C6B017C010E948B1A5A
:101F70009B01AC01C301B2010E94E11B2B013C019A
:101F80004AE0C701B6010E94D80E7C01EA0CFB1C96
:101F90006EE285E694E00E943704E80EF91E20E028
:101FA00030E040E251E4C301B2010E94EC1A2B017F
:101FB0003C010E94C01C4B01B12CA12C4AE0C50180
:101FC000B4010E94D80EE80EF91EC501B4010E94AA
:101FD0008B1A9B01AC01C301B2010E94E11B20E0FE
:101FE00030E040E251E40E94EC1A0E94C01C90E0F4
:101FF00080E04AE00E94D80EE80EF91E68CF0E94E9
:102000002B1F0F931F93CF93DF93EC01888199814E
:10201000009759F02A813B812617370730F081E07D
:10202000DF91CF911F910F9108958B016F5F7F4FCB
:102030000E946E1E009759F0998388831B830A8340
:102040002C813D81232B59F7FC011082E8CF80E0E1
:10205000E7CFCF93DF93EC0188819981009711F04E
:102060000E94E51D198218821D821C821B821A8221
:10207000DF91CF9108950F931F93CF93DF93EC01DE
:102080000C811D810C5F1F4FB8010E940110882335
:1020900091F0288139818C819D816BE473E0820FFE
:1020A000931F0E94391F1D830C83CE01DF91CF91B6
:1020B0001F910F910895CE010E942910F6CFEF9243
:1020C000FF920F931F93CF93DF93EC017B01198253
:1020D00018821B821A821D821C82FB010190002043
:1020E000E9F731978F01061B170BB8010E94011009
:1020F000811109C0CE01DF91CF911F910F91FF9007
:10210000EF900C9429101D830C83B701888199816D
:10211000DF91CF911F910F91FF90EF900C94391F99
:10212000CF92DF92EF92FF920F931F93CF93DF93A3
:10213000CDB7DEB7A1970FB6F894DEBF0FBECDBF07
:102140007C01CB01BA01F701118210821382128245
:10215000158214828E010F5F1F4F22E044E00E941F
:1021600031186C01009771F0FC0101900020E9F733
:1021700031978F01081B190BB801C7010E9401108C
:10218000811112C0C7010E942910A1960FB6F894C0
:10219000DEBF0FBECDBFDF91CF911F910F91FF909A
:1021A000EF90DF90CF900895F70115830483B60177
:1021B000808191810E94391FE8CFEF92FF920F93A7
:1021C0001F93CF93DF93EC01FB01E080F180E114DA
:1021D000F10411F10481158101151105A9F08C811B
:1021E0009D81080F191FB801CE010E94011088239C
:1021F00099F0288139818C819D81B701820F931FCD
:102200000E94391F1D830C83CE01DF91CF911F9156
:102210000F91FF90EF900895CE010E942910F4CF06
:10222000FC0180819181009711F00C94E51D0895C7
:102230001F93CF93DF9385ED8093BC008091DD03E6
:102240009091DE03A091DF03B091E0030796A11DFA
:10225000B11D23E0B695A795979587952A95D1F757
:102260002091BC0024FD03C01092250452C040916F
:10227000DD035091DE036091DF037091E003452B95
:10228000462B472B69F30097A105B10541F025E3E3
:102290002A95F1F700000197A109B109E1CF8091DA
:1022A000DC03C1E0C093DB03882399F1D091B8002F
:1022B0001091BA008091BC008A7B8093BC0060E0E2
:1022C00082E10E94A40460E083E10E94A4041092D1
:1022D0002504C09327041092260461E082E10E9445
:1022E000A40461E083E10E94A4048091B9008E7F80
:1022F0008093B9008091B9008D7F8093B90088E404
:102300008093B80085E48093BC001093BA00D0930A
:10231000B800DF91CF911F9108951F920F920FB6D1
:102320000F9211242F933F934F935F936F937F935B
:102330008F939F93AF93BF93EF93FF9385E694E0C2
:102340000E941504FF91EF91BF91AF919F918F91E2
:102350007F916F915F914F913F912F910F900FBEA1
:102360000F901F9018951F920F920FB60F92112485
:102370002F938F939F93EF93FF93E0917504F091C8
:1023800076048081E0917B04F0917C0482FD1BC087
:10239000908180917E048F5F8F7320917F048217DC
:1023A00041F0E0917E04F0E0EB59FB4F958F809374
:1023B0007E04FF91EF919F918F912F910F900FBE0F
:1023C0000F901F9018958081F4CF1F920F920FB637
:1023D0000F9211242F933F938F939F93AF93BF93AB
:1023E00080914C0490914D04A0914E04B0914F0403
:1023F00030914B0423E0230F2D3758F50196A11D92
:10240000B11D20934B0480934C0490934D04A093F2
:102410004E04B0934F048091500490915104A091C8
:102420005204B09153040196A11DB11D8093500434
:1024300090935104A0935204B0935304BF91AF9171
:102440009F918F913F912F910F900FBE0F901F90F2
:10245000189526E8230F0296A11DB11DD2CF1F9219
:102460000F920FB60F9211242F933F934F935F93C8
:102470006F937F938F939F93AF93BF93EF93FF934C
:102480008091B900887F803609F44AC0F0F588321F
:1024900009F4A5C018F5803109F499C0B8F488236F
:1024A00009F4F5C0883009F492C0FF91EF91BF9113
:1024B000AF919F918F917F916F915F914F913F91DC
:1024C0002F910F900FBE0F901F901895883109F42F
:1024D00086C0803251F78093240414C0803409F4FC
:1024E0009BC040F48033B9F38833F9F68093240419
:1024F00085ECAEC0803509F483C0883509F494C0FA
:10250000883499F60E941811D0CF883909F48AC00E
:1025100038F5883729F050F4883611F0803729F6DD
:1025200083E0809325041092230455C0883809F471
:1025300079C0803919F0803809F0B7CF8091230431
:10254000803208F06FC0E091230481E08E0F809309
:1025500023048091BB00F0E0ED5FFB4F80833BC024
:10256000803B39F0D0F4803A09F477C0883A09F01A
:102570009CCF84E080932504109202041092010401
:10258000F0E0E0E009958091010481110FC081E045
:10259000809301041092E10309C0803C09F4A8CFA4
:1025A000883C09F4A5CF883B09F07FCFE091020475
:1025B00081E08E0F80930204F0E0EF51FC4F8081A8
:1025C0008093BB00909102048091010429C0809106
:1025D0004A048093BB0085EC8093BC0066CF909149
:1025E000490480914804981758F5E091490481E026
:1025F0008E0F80934904F0E0E85DFB4F8081E9CFC6
:10260000E091490481E08E0F809349048091BB00E2
:10261000F0E0E85DFB4F808390914904809148048D
:102620009817C8F285E8D8CFE091490481E08E0F71
:10263000809349048091BB00F0E0E85DFB4F80830C
:102640008091270481115ECF81E08093260484EA83
:102650008093BC001092250428CF85EC8093BC00A9
:102660001092250480912304803230F4E0912304F9
:10267000F0E0ED5FFB4F10826091230470E083E097
:1026800094E0F0E0E0E00995109223040ECF109260
:10269000240438CFCF93DF93E5E6F4E0138212826F
:1026A00088EE93E0A0E0B0E084839583A683B783AF
:1026B00082E093E09183808385EC90E09587848726
:1026C00084EC90E09787868780EC90E0918B808BFC
:1026D00081EC90E0938B828B82EC90E0958B848BE5
:1026E00086EC90E0978B868B118E128E138E148E53
:1026F000C2E0D5E01B821A8224E530E03D832C83C2
:1027000080E390E09F838E83398728879B878A8721
:102710001E8A1D861C861F861E8681E08D8B8C8BF3
:102720002FEF3FEF3B8B2A8B398B288B8F8B188EAB
:102730001A8E198E84E193E0998388838CE190E06E
:102740000E94491DDC0111961C921E9213961C9248
:102750001E92129784E01B968C931B9787E01C9621
:102760008C931C978FEF1E968C931E9786E01D9678
:102770008C931D97E2EAF6E0E491F0E0EE0FFF1F84
:10278000EC56F94F8591949156969C938E9355975C
:10279000E4E8F6E0E4915A96EC935A97E4EAF6E01E
:1027A000E491F0E0EE0FFF1FEC56F94F8591949104
:1027B00050969C938E931F97E6E8F6E0E491579627
:1027C000EC935797E5EAF6E0E491F0E0EE0FFF1F97
:1027D000EC56F94F8591949152969C938E93519714
:1027E000E7E8F6E0E4915996EC93599740E059E018
:1027F0006DE370E014964D935D936D937C93179702
:1028000081E090E019969C938E9318971A961C92EB
:102810001A975B961C925B97BC8FAB8F85E08E8F6F
:1028200083E08D8FDF91CF910895CF93DF93CDB764
:10283000DEB768970FB6F894DEBF0FBECDBF7894B1
:1028400084B5826084BD84B5816084BD85B58260B5
:1028500085BD85B5816085BD80916E008160809366
:102860006E001092810080918100826080938100CF
:1028700080918100816080938100809180008160DF
:10288000809380008091B10084608093B10080913A
:10289000B00081608093B00080917A008460809362
:1028A0007A0080917A00826080937A0080917A0029
:1028B000816080937A0080917A00806880937A00AA
:1028C0001092C100E0917504F091760482E080835B
:1028D000E0917104F09172041082E0917304F09120
:1028E00074048FEC808310927D04E0917904F09160
:1028F0007A0486E08083E0917704F0917804808107
:1029000080618083E0917704F09178048081886011
:102910008083E0917704F0917804808180688083DF
:10292000E0917704F091780480818F7D808361E06D
:1029300088E00E94F00461E089E00E94F00461E018
:102940008AE00E94F00461E08BE00E94F004C090F5
:102950001D05D0901E05F60183858F3F41F061E093
:102960000E94F00461E0F60183850E94A404F60150
:1029700080819181892B09F4FAC1BFB6F8948091C6
:102980005404811127C0E8EAF6E08491EAE8F6E011
:102990009491E82FF0E0EE0FFF1FEA58F94FA59150
:1029A000B491EC91E92321F461E08AE00E94A4044F
:1029B00061E08AE00E94F0048CB580618CBD8CB52A
:1029C00080648CBD61E08DE00E94F00461E08BE0EA
:1029D0000E94F004809154048F5F80935404BFBE22
:1029E00081E0F601838F61E0809120050E94F00470
:1029F00080911F0587FD03C061E00E94F00484E020
:102A00008093220588E2809321051092230510927D
:102A100024050E94D3061092250580912605833552
:102A200008F483E5809326051092270580912805F8
:102A30008F3208F48FE2809328050E94110782E309
:102A40000E94BC060E94A40E0E94110768EE73E06B
:102A500080E090E00E946C060E94A40E81E08093CA
:102A600016058093170581E090E0909315058093FB
:102A70001405909313058093120505E010E0109360
:102A80000F0500930E05109211051092100560E5D8
:102A900073E082E095E00E941E0F10930F050093F3
:102AA0000E058AE090E090931105809310056CE587
:102AB00073E082E095E00E941E0F0E94110760ED16
:102AC00077E080E090E00E946C060E94A40E91E402
:102AD000992E21E7822E80E0282E80E0382E8FE08C
:102AE0000E9421056C018EE00E942105BC01990F16
:102AF000880B990B0E948D1A6D8B7E8B8F8B988F14
:102B0000B601DD0C880B990B0E948D1A20E030E095
:102B1000A9010E94861A882309F44BC160E070E085
:102B200088E991E40E944D0E23EF34E045EB5FE32A
:102B30000E944E1C2B013C0160E070E080E991E4B2
:102B40000E944D0E23EF34E045EB5FE30E944E1CE4
:102B50006D877E878F87988B60E070E088E891E4CE
:102B60000E944D0E23EF34E045EB5FE30E944E1CC4
:102B7000698B7A8B8B8B9C8B60E070E080E891E4B2
:102B80000E944D0E23EF34E045EB5FE30E944E1CA4
:102B90005B016C0120E030E0A9016D897E898F899D
:102BA000988D0E94861A882391F166E673E085E687
:102BB00094E00E941E0FC301B2010E94320F61E730
:102BC00073E085E694E00E941E0F6D857E858F85FB
:102BD00098890E94320F6CE773E085E694E00E94CA
:102BE0001E0F69897A898B899C890E94320F67E858
:102BF00073E085E694E00E941E0FC601B5010E94B5
:102C0000320F62E973E085E694E00E941E0F6DE9E1
:102C100073E082E095E00E94C90EB301A201CE01EB
:102C200001960E9490106EEA73E0CE0107960E9412
:102C30005F10BE016F5F7F4FCE0107960E94DD10CF
:102C40000E943B100E94BB03CE0107960E94101108
:102C5000CE0101960E9410114D855E856F857889A1
:102C6000CE0101960E94901062EB73E0CE010796B0
:102C70000E945F10BE016F5F7F4FCE0107960E94DA
:102C8000DD100E943B100E94BB03CE0107960E94FC
:102C90001011CE0101960E94101149895A896B8941
:102CA0007C89CE0101960E94901066EB73E0CE0104
:102CB00007960E945F10BE016F5F7F4FCE0107969F
:102CC0000E94DD100E943B100E94BB03CE010796BC
:102CD0000E941011CE0101960E941011B601A501AB
:102CE000CE0101960E9490106AEB73E0CE01079628
:102CF0000E945F10BE016F5F7F4FCE0107960E945A
:102D0000DD100E943B100E94BB03CE0107960E947B
:102D10001011CE0101960E9410110E94A40E9F92E4
:102D2000F2E6FF938DE38F938F92E988FA880B89FF
:102D30001C892D853E854F855889C301B2010E94AB
:102D4000E00D0F900F900F900F9064E670E080E020
:102D500090E00E946C062114310409F4C0CE0E9458
:102D60000104882309F4BBCE0E940000B4CE61E0C8
:102D700084850E94F004F60182858B7F60E009F073
:102D800061E084850E94A404F60185858F3F41F0AF
:102D900061E00E94F00461E0F60185850E94A404D0
:102DA000F60186858F3F09F41BCE60E00E94F00497
:102DB00017CE83E10E942105BC01990F880B990B66
:102DC0000E948D1A6093610470936204809363047F
:102DD0009093640483E10E942105BC01990F880B44
:102DE000990B0E948D1A60935D0470935E0480932A
:102DF0005F049093600483E10E942105BC01990F58
:102E0000880B990B0E948D1A6093590470935A0491
:102E100080935B0490935C0483E10E942105BC01D4
:102E2000990F880B990B0E948D1A6093550470932B
:102E30005604809357049093580420E030E0A90191
:102E40006D897E898F89988D0E94861A882309F45E
:102E500046C066E673E085E694E00E941E0F60912E
:102E600061047091620480916304909164040E94F3
:102E7000320F61E773E085E694E00E941E0F6091D7
:102E80005D0470915E0480915F04909160040E94E3
:102E9000320F6CE773E085E694E00E941E0F6091AC
:102EA000590470915A0480915B0490915C040E94D3
:102EB000320F67E873E085E694E00E941E0F609190
:102EC00055047091560480915704909158040E94C3
:102ED000320F6EEB73E085E694E00E941E0F69EC02
:102EE00073E082E095E00E94C90E40916104509128
:102EF00062046091630470916404CE0101960E94A3
:102F000090106EEA73E0CE0107960E945F10BE013A
:102F10006F5F7F4FCE0107960E94DD100E943B102D
:102F20000E94BB03CE0107960E941011CE010196AC
:102F30000E94101140915D0450915E0460915F0405
:102F400070916004CE0101960E94901062EB73E0D4
:102F5000CE0107960E945F10BE016F5F7F4FCE01CA
:102F600007960E94DD100E943B100E94BB03CE0119
:102F700007960E941011CE0101960E9410114091F7
:102F8000590450915A0460915B0470915C04CE0125
:102F900001960E94901066EB73E0CE0107960E94A6
:102FA0005F10BE016F5F7F4FCE0107960E94DD105C
:102FB0000E943B100E94BB03CE0107960E94101195
:102FC000CE0101960E941011409155045091560473
:102FD0006091570470915804CE0101960E949010A0
:102FE0006AEB73E0CE0107960E945F10BE016F5F2F
:102FF0007F4FCE0107960E94DD100E943B100E9479
:10300000BB03CE0107960E941011CE0101960E94CB
:1030100010110E94A40EA0905504B0905604C090C8
:103020005704D0905804E0905904F0905A0400914D
:103030005B0410915C0420915D0430915E0440912A
:103040005F0450916004609161047091620480910A
:103050006304909164049F92E0EAEF931F921F92A1
:103060006ECEEF920F931F93CF93DF93E80134E07E
:1030700047FD34E1042E000C550B57FF03C051955A
:1030800041955109E32E022F242FAE010E944F18C3
:10309000CE01DF91CF911F910F91EF900895A9E09C
:1030A000B0E0E5E5F8E10C94B01B6A01F22EB02E19
:1030B000102FFBE3AF2EA01608F41BE31F5F012FB8
:1030C00027E0AE014F5F5F4F0E94AE19BC018981BE
:1030D000982F9970913009F43FC09BE2E1FC04C045
:1030E0009E2D9170E0FC3AC05E2D5071E82FE87083
:1030F00083FF46C084E0911101C083E0EF2DE81BFF
:103100008F1508F0E0E0D6018E2F20E2552351F113
:10311000992329F0D6019C93C60101966C01960172
:103120002D5F3F4FE2FE24C08EE4D6018C9391E4E4
:1031300011969C93119712968C93D9018E2F90E241
:1031400081111BC0E20FF32FF11D10828EEF9FEF54
:103150002996ECE00C94CC1B9DE2C6CF90E2C4CF44
:103160002D9381508111FCCFCE0ED11CE0E0D0CF49
:103170008EE6D6018C9391E6DBCF9D938150E0CF14
:10318000482F447082FF3DC084E0911101C083E06C
:103190008F1510F4EF2DE81BD6018E2F20E255235A
:1031A00009F1992329F0D6019C93C60101966C017F
:1031B00096012D5F3F4FE2FE1BC089E4D6018C9340
:1031C0008EE411968C93119786E412968C93D90114
:1031D0008E2F90E2882309F4B5CF9D938150FACFCA
:1031E0002D9381508111FCCFCE0ED11CE0E0D9CFC0
:1031F00089E6D6018C938EE611968C93119786E61C
:10320000E4CF9B0177FF02C030E020E0A1E0B0E016
:10321000911102C0B0E0A0E0F9013196AE0FBF1FDE
:103220008B2C912CBB2009F461C05401EFEFAE1A36
:10323000BE0AAA0DBB1DFA161B0619F014F04F2D7D
:103240004A1B511188C0E3FC59C07601A42FB0E29B
:10325000A1114FC0C40ED11C992309F45BC040E0FA
:10326000D6011196F60190836D01552309F448C0EB
:10327000012F060F9A81582F507184FF03C091339C
:1032800009F4015010160CF047C0093008F008E0AE
:10329000EEE2FE2E5B01A01AB108850191948194A3
:1032A00091082F3F320729F4D601FC92F60131969E
:1032B0006F016217730794F1021713077CF5DB01A6
:1032C000A21BB30BAA24A394B12CAC0EBD1EAA0D55
:1032D000BB1D11968C9121503109D60111962815EC
:1032E0003905F4F0F60180836D01DBCFB12CA12C00
:1032F000A0CFF701B1937F01A150AACF9111B0CF18
:10330000D601942F50E302C05D9391509111FCCFF0
:10331000C40ED11C40E0ACCF01E0BACF80E3DBCFDC
:103320006217730731F4963388F4953311F45523FB
:1033300069F0F6018083FD01842F90E2811108C0BD
:10334000A40FB11D1C9290E080E002CF81E3F1CF89
:1033500091938150F3CF911183CF8ACF283008F019
:1033600027E03327DA01990F311D87FD9160009620
:103370006105710539F432602E5F3D9330E32A9583
:10338000E1F708959F3F30F080387105610509F03D
:103390003C5F3C5F3D93913008F08068911DDF9366
:1033A000CF931F930F93FF92EF92192F987F9695CB
:1033B000E92F96959695E90FFF27EE53FF4F992732
:1033C0003327EE24FF24A701E70105900894079412
:1033D00028F4360FE71EF81E491F511D660F771F90
:1033E000881F991F0694A1F70590079428F4E70E0B
:1033F000F81E491F561FC11D770F881F991F661F92
:103400000694A1F70590079428F4F80E491F561F5B
:10341000C71FD11D880F991F661F771F0694A1F73C
:103420000590079420F4490F561FC71FD81F990F06
:10343000661F771F881F0694A9F78491109517704F
:1034400041F0D695C79557954795F794E7941A9507
:10345000C1F7E8E6F0E06894159015913591659113
:10346000959105907FE27395E118F10A430B560B95
:10347000C90BD009C0F7E10CF11E431F561FC91F2D
:10348000D01D7EF4703311F48A95E6CFE894015094
:1034900030F0080F0AF40027021708F4202F2395B4
:1034A000022F7A3328F079E37D932A95E9F710C04B
:1034B0007D932A9589F60694979567953795179584
:1034C0001794E118F10A430B560BC90BD00998F079
:1034D00023957E9173957A3308F070E37C932013E3
:1034E000B8F77E9170617D9330F0839571E37D93A1
:1034F00070E32A95E1F71124EF90FF900F911F914F
:10350000CF91DF91992787FD909508950E94C81A61
:1035100008F481E00895E89409C097FB3EF4909583
:103520008095709561957F4F8F4F9F4F9923A9F09C
:10353000F92F96E9BB279395F6958795779567952B
:10354000B795F111F8CFFAF4BB0F11F460FF1BC06F
:103550006F5F7F4F8F4F9F4F16C0882311F096E902
:1035600011C0772321F09EE8872F762F05C06623B0
:1035700071F096E8862F70E060E02AF09A95660F69
:10358000771F881FDAF7880F9695879597F9089522
:10359000990F0008550FAA0BE0E8FEEF1616170664
:1035A000E807F907C0F012161306E407F50798F0CC
:1035B000621B730B840B950B39F40A2661F0232BE5
:1035C000242B252B21F408950A2609F4A140A69561
:1035D0008FEF811D811D08950E94FF1A0C94701BAE
:1035E0000E94621B38F00E94691B20F0952311F0A5
:1035F0000C94591B0C945F1B11240C94A41B0E9467
:10360000811B70F3959FC1F3950F50E0551F629F8A
:10361000F001729FBB27F00DB11D639FAA27F00D2B
:10362000B11DAA1F649F6627B00DA11D661F829F52
:103630002227B00DA11D621F739FB00DA11D621F37
:10364000839FA00D611D221F749F3327A00D611D54
:10365000231F849F600D211D822F762F6A2F112436
:103660009F5750409AF0F1F088234AF0EE0FFF1F69
:10367000BB1F661F771F881F91505040A9F79E3FC0
:10368000510580F00C94591B0C94A41B5F3FE4F38C
:10369000983ED4F3869577956795B795F795E79516
:1036A0009F5FC1F7FE2B880F911D9695879597F91F
:1036B000089597F99F6780E870E060E008959FEFB4
:1036C00080EC089500240A941616170618060906B9
:1036D000089500240A941216130614060506089588
:1036E000092E0394000C11F4882352F0BB0F40F410
:1036F000BF2B11F460FF04C06F5F7F4F8F4F9F4F50
:10370000089557FD9058440F551F59F05F3F71F0D1
:103710004795880F97FB991F61F09F3F79F0879538
:103720000895121613061406551FF2CF4695F1DFC1
:1037300008C0161617061806991FF1CF8695710551
:10374000610508940895E894BB2766277727CB0185
:1037500097F908952F923F924F925F926F927F92C6
:103760008F929F92AF92BF92CF92DF92EF92FF9291
:103770000F931F93CF93DF93CDB7DEB7CA1BDB0B3D
:103780000FB6F894DEBF0FBECDBF09942A883988E2
:1037900048885F846E847D848C849B84AA84B984E9
:1037A000C884DF80EE80FD800C811B81AA81B981F5
:1037B000CE0FD11D0FB6F894DEBF0FBECDBFED0109
:1037C00008955058BB27AA270E94F91B0C94701B20
:1037D0000E94621B38F00E94691B20F039F49F3F61
:1037E00019F426F40C945F1B0EF4E095E7FB0C949F
:1037F000591BE92F0E94811B58F3BA176207730700
:103800008407950720F079F4A6F50C94A31B0EF419
:10381000E0950B2EBA2FA02D0B01B90190010C01E0
:10382000CA01A0011124FF27591B99F0593F50F4F8
:10383000503E68F11A16F040A22F232F342F442750
:10384000585FF3CF469537952795A795F040539548
:10385000C9F77EF41F16BA0B620B730B840BBAF018
:103860009150A1F0FF0FBB1F661F771F881FC2F783
:103870000EC0BA0F621F731F841F48F48795779597
:103880006795B795F7959E3F08F0B0CF9395880F51
:1038900008F09927EE0F9795879508950E94621C6E
:1038A0000C94701B0E94691B58F00E94621B40F030
:1038B00029F45F3F29F00C94591B51110C94A41B5F
:1038C0000C945F1B0E94811B68F39923B1F355236D
:1038D00091F3951B550BBB27AA2762177307840723
:1038E00038F09F5F5F4F220F331F441FAA1FA9F3B9
:1038F00035D00E2E3AF0E0E832D091505040E695A7
:10390000001CCAF72BD0FE2F29D0660F771F881F07
:10391000BB1F261737074807AB07B0E809F0BB0BFA
:10392000802DBF01FF2793585F4F3AF09E3F51050E
:1039300078F00C94591B0C94A41B5F3FE4F3983E61
:10394000D4F3869577956795B795F7959F5FC9F7F7
:10395000880F911D9695879597F90895E1E0660F78
:10396000771F881FBB1F621773078407BA0720F0F1
:10397000621B730B840BBA0BEE1F88F7E09508955A
:103980000E94891B88F09F5798F0B92F9927B7514B
:10399000B0F0E1F0660F771F881F991F1AF0BA95F3
:1039A000C9F714C0B13091F00E94A31BB1E0089593
:1039B0000C94A31B672F782F8827B85F39F0B93F85
:1039C000CCF3869577956795B395D9F73EF49095A6
:1039D0008095709561957F4F8F4F9F4F08950E94FE
:1039E000C81A08F48FEF08950E94C81A880B990B23
:1039F000089597FB072E16F4009407D077FD09D0A1
:103A00000E942F1D07FC05D03EF4909581959F4F95
:103A10000895709561957F4F0895A1E21A2EAA1B13
:103A2000BB1BFD010DC0AA1FBB1FEE1FFF1FA2176E
:103A3000B307E407F50720F0A21BB30BE40BF50B6B
:103A4000661F771F881F991F1A9469F760957095F4
:103A5000809590959B01AC01BD01CF010895AA1BF3
:103A6000BB1B51E107C0AA1FBB1FA617B70710F069
:103A7000A61BB70B881F991F5A95A9F7809590959B
:103A8000BC01CD010895EE0FFF1F0590F491E02DCC
:103A900009940F931F93CF93DF938230910510F415
:103AA00082E090E0E0912B05F0912C0530E020E0E1
:103AB000B0E0A0E0309799F42115310509F44AC02F
:103AC000281B390B24303105D8F58A819B8161157B
:103AD000710589F1FB0193838283FE0111C040814E
:103AE00051810281138148175907E0F0481759079F
:103AF00099F4109761F012960C93129713961C93F9
:103B00003296CF01DF91CF911F910F9108950093CD
:103B10002B0510932C05F4CF2115310551F04217D8
:103B2000530738F0A901DB019A01BD01DF01F8015B
:103B3000C1CFEF01F9CF90932C0580932B05CDCF0A
:103B4000FE01E20FF31F81939193225031093983D3
:103B50002883D7CF2091290530912A05232B41F4C2
:103B60002091FA023091FB0230932A052093290517
:103B70002091F8023091F9022115310541F42DB759
:103B80003EB74091FC025091FD02241B350BE091A1
:103B90002905F0912A05E217F307A0F42E1B3F0B2D
:103BA0002817390778F0AC014E5F5F4F24173507AF
:103BB00048F04E0F5F1F50932A05409329058193CB
:103BC00091939FCFF0E0E0E09CCFCF93DF930097FD
:103BD000E9F0FC01329713821282A0912B05B0917B
:103BE0002C05ED0130E020E01097A1F42081318117
:103BF000820F931F2091290530912A052817390734
:103C000009F061C0F0932A05E0932905DF91CF9177
:103C10000895EA01CE17DF07E8F54A815B819E012E
:103C200041155105B1F7E901FB83EA8349915991A7
:103C3000C40FD51FEC17FD0761F4808191810296B6
:103C4000840F951FE90199838883828193819B83E7
:103C50008A83F0E0E0E012968D919C911397009793
:103C6000B9F52D913C911197CD010296820F931FCA
:103C70002091290530912A052817390739F6309700
:103C800051F510922C0510922B05B0932A05A093A4
:103C90002905BCCFD383C28340815181840F951FF6
:103CA000C817D90761F44E5F5F4F88819981480F2B
:103CB000591F518340838A819B819383828321157D
:103CC000310509F0B0CFF0932C05E0932B059ECF82
:103CD000FD01DC01C0CF13821282D7CFB0E0A0E09B
:103CE000E4E7FEE10C94AC1B8C01009751F4CB018E
:103CF0000E94491D8C01C801CDB7DEB7E0E10C94EC
:103D0000C81BFC01E60FF71F9C0122503109E21786
:103D1000F30708F49DC0D901CD91DC911197C61726
:103D2000D70798F0C530D10530F3CE010497861738
:103D3000970708F3C61BD70B2297C193D1936D93B6
:103D40007C93CF010E94E51DD6CF5B01AC1ABD0A62
:103D50004C018C0E9D1EA0912B05B0912C05512C71
:103D6000412CF12CE12C109731F58091290590918F
:103D70002A058815990509F05CC04616570608F013
:103D800058C08091F8029091F902009741F48DB7E4
:103D90009EB74091FC025091FD02841B950BE817E1
:103DA000F90708F055C0F0932A05E0932905F901B9
:103DB00071836083A0CF8D919C91119712966C9026
:103DC000129713967C901397A815B90559F56C01B5
:103DD00042E0C40ED11CCA14DB0420F1AC014A1924
:103DE0005B09DA011296159780F062827382518323
:103DF0004083D9016D937C93E114F10471F0D701F4
:103E00001396FC93EE93129776CF22968C0F9D1FFC
:103E1000F90191838083F301EFCFF0932C05E093B8
:103E20002B0569CF4816590608F42C017D01D301F2
:103E30009ACFCB010E94491D7C01009749F0AE0149
:103E4000B8010E94301FC8010E94E51D870153CFB1
:103E500010E000E050CF81E090E0F8940C94401F17
:103E6000FB01DC0102C001900D9241505040D8F797
:103E70000895FB01DC0101900D920020E1F7089507
:043E8000F894FFCFE4
:103E8400000000000000000000000000000000002E
:103E9400000000000000000000000000000000001E
:103EA400000000000000C0E0F0F8FCFCFEFFFCE0B5
:103EB40000000000000000000000000000000000FE
:103EC40000000000000000000000000000000000EE
:103ED40000000000000000000000000000000000DE
:103EE4000000000000F8F8F8F8F8F8F8F8F8F8F826
:103EF400F8F0F0E0E0C080C0FCFFFFFFFF7F3F7FF1
:103F0400FFFFFFFFFF0000000000000000000000B2
:103F1400000000000000000000000000000000009D
:103F2400000000000000000000000000000000008D
:103F3400000000000000000000000F1F3F7FFFFF93
:103F4400FFFFFFFFFFFFE7C7C7878F9F9FFFFFFFAD
:103F5400C1C0E0FCFFFFFFFFFFFCFCFCFCFEFEFE1B
:103F6400FCFCF8F8F0E0C0C0000000000000000015
:103F7400000000000000000000000000000000003D
:103F8400000000000000000000000000000000002D
:103F94000080C0E0F1FBFFFFFFFFFF7F1F0F0F87D3
:103FA400E7FFFFFF1F1F3FF9F8F8F8F8F8F8FDFFE7
:103FB400FFFFFFFFFFFFFFFF7F3F0F070100000030
:103FC40000000000000000000000000000000000ED
:103FD40000000000000000000000000000000000DD
:103FE400000000F0FEFFFFFFFFFFFFFFFFFFFFFEEB
:103FF4007E3F3F0F1FFFFFFFFCF0E0F1FFFFFFFFDD
:10400400FFFCF001010101010101010000000000B9
:10401400000000000000000000000000000000009C
:10402400000000000000000000000000000000008C
:104034000000000000000003030303030303030163
:1040440001010100000000000000030F1F3F7F7FFB
:10405400FFFFFFFF7F7F1F03000000000000000040
:10406400000000000000000000000000000000004C
:10407400000000000000000000002D05800000008A
:10408400000037048E03C4038404F503D303E70359
:1040940000000000830A8E03DD0DDC0D87071E0877
:1040A400280D000D1C0D100D2F0D1E084908760754
:1040B400C70C8E0C490C2C0CB40B550B0D0A006E5E
:1040C400616E00696E66006F76660056726D7300ED
:1040D40041432F4443204D6574657200494E494362
:1040E400494F212121004348414E4E454C20413A3D
:1040F400004348414E4E454C20423A004348414E0D
:104104004E454C20433A004348414E4E454C2044D2
:104114003A0041432F44433A2020414300566F6CF8
:1041240074C3AD6D6574726F204143200A007641FB
:104134003A0076423A0076433A0076443A004143E4
:104144002F44433A2020444300566F6C74C3AD6D32
:0A4154006574726F204443200A00D6
:00000001FF
