:020000040000FA
:100000000000BE298316AD007F08AC007E08AE005C
:100010007D082E04031D7F282D082C04031D1328A2
:1000200083128501F32883162C08013A031D20282A
:100030002D08003A031D2028013083128500F32883
:1000400083162C08023A031D2D282D08003A031DA3
:100050002D28023083128500F32883162C08033ADA
:10006000031D3A282D08003A031D3A280330831255
:100070008500F32883162C08043A031D47282D0811
:10008000003A031D4728043083128500F3288316A5
:100090002C08053A031D54282D08003A031D542846
:1000A000053083128500F32883162C08063A031DB9
:1000B00061282D08003A031D61280630831285004F
:1000C000F32883162C08073A031D6E282D08003AE2
:1000D000031D6E28073083128500F32883162C0831
:1000E000083A031D7B282D08003A031D7B28103099
:1000F00083128500F328113083128500F3288316BC
:100100002D082C04031D8828203083128500F32835
:1001100083162C08013A031D95282D08003A031D6B
:100120009528213083128500F32883162C08023A83
:10013000031DA2282D08003A031DA2282230831295
:100140008500F32883162C08033A031DAF282D08D9
:10015000003A031DAF28233083128500F32883164D
:100160002C08043A031DBC282D08003A031DBC28A6
:10017000243083128500F32883162C08053A031DCA
:10018000C9282D08003A031DC9282530831285008F
:10019000F32883162C08063A031DD6282D08003AAA
:1001A000031DD628263083128500F32883162C08D9
:1001B000073A031DE3282D08003A031DE3282730E2
:1001C00083128500F32883162C08083A031DF028B3
:1001D0002D08003A031DF028303083128500F328E3
:1001E00031308312850008000830831685008312A1
:1001F00085018316A001A1010930FD000030FE0039
:100200000030FF000030DE228316A3007F08A2002A
:100210000930FD000030FE000030FF000030DE221B
:100220008316A5007F08A4000030FD000030FE000A
:100230002208FF00230802200A30FF000030F223CA
:100240000130FD000030FE0083162408FF00250861
:1002500002200A30FF000030F2238316A00A03199F
:10026000A10A2008103A031D9C292108003A031D09
:100270009C290030FD000030FE000930FF000030F6
:1002800002200A30FF000030F2230130FD00003070
:10029000FE000930FF00003002200A30FF0000306D
:1002A000F2230030FD000030FE000930FF00003076
:1002B00002200A30FF000030F2230130FD00003040
:1002C000FE000930FF00003002200A30FF0000303D
:1002D000F2230030FD000030FE000930FF00003046
:1002E00002200A30FF000030F2230130FD00003010
:1002F000FE000930FF00003002200A30FF0000300D
:10030000F2230030FD000030FE000930FF00003015
:1003100002200A30FF000030F2230130FD000030DF
:10032000FE000930FF00003002200A30FF000030DC
:10033000F2238316A001A1018312851DFC288312DC
:10034000851DFC280030FD000030FE0083162208C9
:10035000FF00230802200A30FF000030F2230130A2
:10036000FD000030FE0083162408FF00250802204F
:100370000A30FF000030F2239F2908004830FE00B9
:100380000430FF00803000000000D1230000000096
:1003900083120000A1007F08A0004A30A2000430B0
:1003A000A300831200002008A4002108A500FF304C
:1003B000A007031CA103250824040319562A0430AE
:1003C0002207A400A501A50D2308A5072408FE0007
:1003D0002508FF00803000000000D123000000004D
:1003E00083120000A7007F08A6002208FE00230851
:1003F000FF00803000000000D123000000008312C5
:100400000000A900A5007F08A400A8000230220770
:10041000A400A501A50D2308A5072408FE002508B2
:10042000FF00803000000000D12300000000831294
:100430000000A500AB007F08AA00A4008312000002
:100440002608AA002708AB00FF30A607031CA70355
:100450002B082A0403194F2A2808FE002908FF0048
:10046000803000000000BE23000000008312000066
:10047000AA0024088312031384008313831200004C
:10048000251883172A0883120313800083120000A3
:10049000A80A0319A90AA40A0319A50A1E2A0630E4
:1004A00083120000A2070318A30AD129000000004C
:1004B000F428080083120000AD007F0883120000BA
:1004C000B00083120000AC007E08AF007D088312EC
:1004D0000000B20083120000AE002D08831200005D
:1004E000B100831200002F0883120000B3008312B2
:1004F0000000300883120000AC00831200003208B4
:1005000083120000AD00FF002C08000000001D2435
:100510000000000083120000AD007F08AC008312D1
:100520000000B400831200002D0883120000B50003
:1005300083120000AC008312000030088312000018
:10054000AD0083120000330883120000AE00FF00EC
:100550002D08000000001D24000000007F08831209
:100560000000AD0083120000310883120000AE00CD
:1005700083120000320883120000AF00FF002E0833
:10058000000000001D24000000007F08831200000E
:10059000AE00AD072D08AC072C0883120000B50093
:1005A000340883120000AC00831200003508831267
:1005B0000000AD002C08FF002D0808008316A700DE
:1005C0007F08A6007E08A9007D08A80083124408C1
:1005D000FD004508FE004408FF0045085A22831626
:1005E000AB007F08AA006430FD000030FE002A083E
:1005F000FF002B0884238316AB007F08AA0010306D
:10060000FD002730FE002A08FF002B083723831641
:10061000AB007F08AA008312C40783162B080318B7
:100620002B0A0319152B8312C5078316A80A031971
:10063000A90A2608A8022708031C270FA9022808D0
:10064000FD002908FE0083124408FF0045083723F7
:100650008316A9007F08A80026082807A6002908F5
:100660000318290FA7072608FF0027080800831290
:100670000000B7007F08B6007E08B9007D08B8000A
:10068000BA01BB018312000039088039031D013013
:10069000BC003C08031D632B0310B80DB90D3908CD
:1006A0003702031D552B3808360203185D2B031043
:1006B00083120000B90CB80C632B83120000BB0A34
:1006C0003B08BA00422B8312000039083702031D91
:1006D0006B2B38083602031C752B83120000380878
:1006E000B6023908031C390FB70203108312000049
:1006F000B90CB80C3A08BB00BA033B08031D632BC6
:100700003608FF003708080083160000B8007F088D
:10071000B7007E08BA007D08B900BB01BC011030EB
:10072000BD008316000038088039031D0130BE006B
:100730000310B70DB80D0310BB0DBC0D3E08031D13
:100740003B143A083C02031DA72B39083B02031C4B
:10075000B22B831600003908BB023A08031C3A0F7B
:10076000BC023714831600003D03BE00BD003E08E6
:10077000031D912B3708FF0038080800003A0319C1
:10078000C52B803A0319CC2B00347E0884008313D8
:100790007F188317000808007F088A007E088200FF
:1007A0000800003A0319D92B803A0319E32BFF0103
:1007B00000347E08840083137F1883170008FF002D
:1007C000840A0008080000000000CC23FD00FE0F92
:1007D000FF03FF0A00000000CC23FC007D08FF009F
:1007E0007C0808008316B0007F08AF00B101B20199
:1007F000831630083202031DFF2B2F083102031825
:100800001C2CFB308316B3000430B400FF30831679
:100810003307B500FF30B60034080318340FB607AD
:100820003508B3003608B40036083504031D062C1D
:10083000B10A0319B20AF82B080083120000BD00A8
:100840007F08BE00BF01C001C10108308312000053
:1008500041020318422C0310BF0DC00DBD1F392CDF
:100860000030C3003E08C200BF0743080318430F0F
:10087000C007831200003D08C2000310420DBD00F6
:10088000C10A252C831200003F08FF004008080021
:100890000234003456340434443400340234003416
:1008A000583404344634003401340034E73403341B
:0208B000003412
:02400E00D73F9A
:00000001FF
