:020000040000FA
:100000000000FD288316AB007F08AA007E08AD0023
:100010007D08AC002D04031D80282B082A04031D35
:10002000142883128501FC2883162A08013A031D2F
:1000300021282B08003A031D212801308312850056
:10004000FC2883162A08023A031D2E282B08003AA2
:10005000031D2E28023083128500FC2883162A08EF
:10006000033A031D3B282B08003A031D3B280330AD
:1000700083128500FC2883162A08043A031D4828A9
:100080002B08003A031D4828043083128500FC2801
:1000900083162A08053A031D55282B08003A031D2C
:1000A0005528053083128500FC2883162A08063A55
:1000B000031D62282B08003A031D622806308312B4
:1000C0008500FC2883162A08073A031D6F282B0891
:1000D000003A031D6F28073083128500FC28831621
:1000E0002A08083A031D7C282B08003A031D7C28A7
:1000F000103083128500FC28113083128500FC2803
:1001000083162C08013A031DFC282D08003A031D14
:10011000FC282B082A04031D912820308312850017
:10012000FC2883162A08013A031D9E282B08003A52
:10013000031D9E28213083128500FC2883162A087F
:10014000023A031DAB282B08003A031DAB282230CE
:1001500083128500FC2883162A08033A031DB82859
:100160002B08003A031DB828233083128500FC2891
:1001700083162A08043A031DC5282B08003A031DDC
:10018000C528243083128500FC2883162A08053AE6
:10019000031DD2282B08003A031DD22825308312D4
:1001A0008500FC2883162A08063A031DDF282B0841
:1001B000003A031DDF28263083128500FC288316B1
:1001C0002A08073A031DEC282B08003A031DEC28E7
:1001D000273083128500FC2883162A08083A031D5D
:1001E000F9282B08003A031DF928303083128500C6
:1001F000FC283130831285000800E030FE00033017
:10020000FF0080300000000069230000000083121E
:100210000000A1007F08A000E230A2000330A3008C
:10022000831200002008A4002108A500FF30A007C9
:10023000031CA1032508240403199529043022076F
:10024000A400A501A50D2308A5072408FE00250884
:10025000FF008030000000006923000000008312CE
:100260000000A7007F08A6002208FE002308FF0068
:1002700080300000000069230000000083120000AD
:10028000A900A5007F08A400A80002302207A4004E
:10029000A501A50D2308A5072408FE002508FF00D9
:1002A000803000000000692300000000831200007D
:1002B000A500AB007F08AA00A40083120000260856
:1002C000AA002708AB00FF30A607031CA7032B08D2
:1002D0002A0403198E292808FE002908FF0080300F
:1002E0000000000056230000000083120000AA0056
:1002F000240883120313840083138312000025183B
:1003000083172A0883120313800083120000A80AAF
:100310000319A90AA40A0319A50A5D290630831244
:100320000000A2070318A30A1029000000001D2ADC
:10033000080083160000B7007F0883160000BA008B
:1003400083160000B6007E08B9007D088316000001
:10035000BC0083160000B800370883160000BB00FD
:1003600083160000390883160000BD0083160000C4
:100370003A0883160000B600831600003C08831676
:100380000000B700FF00360800000000B5230000A1
:10039000000083160000B7007F08B6008316000037
:1003A000BE0083160000370883160000BF008316C6
:1003B0000000B600831600003A0883160000B7005C
:1003C000831600003D0883160000B800FF003708C0
:1003D00000000000B523000000007F088316000025
:1003E000B700831600003B0883160000B800831690
:1003F00000003C0883160000B900FF003808000028
:100400000000B523000000007F0883160000B8003C
:10041000B7073708B607360883160000BF003E0846
:1004200083160000B600831600003F088316000004
:10043000B7003608FF0037080800831685018312CD
:1004400085010930FD000030FE000030FF00003063
:1004500076228316A1007F08A0000930FD0000303D
:10046000FE000030FF00003076228316A3007F08D4
:10047000A2008312851D5A2A8312851D5A2A003034
:10048000FD000030FE0083162008FF002108022036
:100490000530FF0000308A230130FD000030FE00EF
:1004A00083162208FF00230802200530FF000030D9
:1004B0008A233C2A0030FD000030FE00831620080D
:1004C000FF00210802200530FF0000308A230130A0
:1004D000FD000030FE0083162208FF0023080220E2
:1004E0000530FF0000308A23212A08008316A5006A
:1004F0007F08A4007E08A7007D08A600831242089A
:10050000FD004308FE004208FF00430899218316BE
:10051000A9007F08A8006430FD000030FE00280814
:10052000FF0029081C238316A9007F08A8001030AB
:10053000FD002730FE002808FF002908CF2283167F
:10054000A9007F08A8008312C20783162908031890
:10055000290A0319AD2A8312C3078316A60A0319B1
:10056000A70A2408A6022508031C250FA7022608AF
:10057000FD002708FE0083124208FF004308CF2237
:100580008316A7007F08A60024082607A4002708D2
:100590000318270FA5072408FF0025080800831269
:1005A0000000B5007F08B4007E08B7007D08B600E3
:1005B000B801B9018312000037088039031D0130EA
:1005C000BA003A08031DFB2A0310B60DB70D370811
:1005D0003502031DED2A360834020318F52A0310EC
:1005E00083120000B70CB60CFB2A83120000B90A74
:1005F0003908B800DA2A8312000037083502031DD3
:10060000032B36083402031C0D2B8312000036081E
:10061000B4023708031C370FB50203108312000021
:10062000B70CB60C3808B900B8033908031DFB2A0B
:100630003408FF003508080083120000AD007F0871
:10064000AC007E08AF007D08AE00B001B1011030F3
:10065000B200831200002D088039031D0130B30061
:100660000310AC0DAD0D0310B00DB10D3308031D1B
:1006700030142F083102031D3F2B2E083002031CBB
:100680004A2B831200002E08B0022F08031C2F0FE4
:10069000B1022C14831200003203B300B2003308FD
:1006A000031D292B2C08FF002D080800003A031910
:1006B0005D2B803A0319642B00347E088400831379
:1006C0007F188317000808007F088A007E088200D0
:1006D0000800003A0319712B803A03197B2BFF01A4
:1006E00000347E08840083137F1883170008FF00FE
:1006F000840A00080800000000006423FD00FE0FCB
:10070000FF03FF0A000000006423FC007D08FF00D7
:100710007C0808008316AF007F08AE00B001B1016D
:1007200083162F083102031D972B2E083002031861
:10073000B42BFB308316B2000430B300FF308316B5
:100740003207B400FF30B50033080318330FB50784
:100750003408B2003508B30035083404031D9E2B5D
:10076000B00A0319B10A902B080083120000BB00E5
:100770007F08BC00BD01BE01BF010830831200002C
:100780003F020318DA2B0310BD0DBE0DBB1FD12B8A
:100790000030C1003C08C000BD0741080318410FEC
:1007A000BE07831200003B08C0000310400DBB00D1
:1007B000BF0ABD2B831200003D08FF003E08080061
:1007C00002340034EE340334423400340234003452
:1007D000F03403344434003401340034E734033457
:0207E0000034E3
:00000001FF
