:1000000014C02FC042C02CC02BC02AC029C028C099
:1000100027C026C025C080C023C022C021C020C068
:100020001FC01EC01DC01CC01BC011241FBECFE5B9
:10003000D1E0DEBFCDBF10E0A0E6B0E0ECE7F2E03B
:1000400002C005900D92A236B107D9F720E0A2E6D2
:10005000B0E001C01D92AE36B207E1F70BD10CC182
:10006000CFCF1F920F920FB60F9211248F939F93B1
:1000700084E090E090936700809366009F918F9159
:100080000F900FBE0F901F9018951F920F920FB6F2
:100090000F9211248F939F9385E090E090936700D7
:1000A000809366009F918F910F900FBE0F901F90CD
:1000B00018958FEF87BB88E381BB1ABA8BB7806E28
:1000C0008BBF80B5876080BD7894089522E029BFFA
:1000D00021E030E0309365002093640010926D00C1
:1000E00010926C0012BE20916C0030916D0082174E
:1000F00093071CF022B322BBF6CF19BE1092650005
:1001000010926400089588E082BB88EC90E0DEDF06
:1001100012BA88EC90E0DACF1F920F920FB60F92CE
:1001200011242F933F934F935F936F937F938F93FC
:100130009F93AF93BF93EF93FF93B09B0BC081E06E
:1001400090E09093630080936200809160009091B2
:100150006100D9DFB19B06C082E090E0909363001C
:1001600080936200B29B06C083E090E090936300AE
:1001700080936200FF91EF91BF91AF919F918F911A
:100180007F916F915F914F913F912F910F900FBE93
:100190000F901F90189580E182BB88EC90E096DF6D
:1001A00012BA88EC90E092CF80E282BB88EC90E0BB
:1001B0008DDF12BA88EC90E089CF672B69F5009744
:1001C00011F418BA08958130910511F481E050C0FE
:1001D0008230910511F482E04BC08330910511F417
:1001E00083E046C08430910511F484E041C085303D
:1001F000910511F485E03CC08630910511F486E04C
:1002000037C08730910511F487E032C0089711F4A8
:1002100080E12EC081E12CC0009711F480E228C05B
:100220008130910511F481E223C08230910511F4EF
:1002300082E21EC08330910511F483E219C084303C
:10024000910511F484E214C08530910511F485E222
:100250000FC08630910511F486E20AC087309105FF
:1002600011F487E205C0089711F480E301C081E32F
:0C02700088BB08951EDFFFCFF894FFCF7D
:02027C0064001C
:00000001FF
