:1000000014C024C033C021C020C01FC01EC01DC0EA
:100010001CC01BC01AC040C018C017C016C015C0F5
:1000200014C013C012C060C04BC011241FBECFE566
:10003000D1E0DEBFCDBF20E0A0E6B0E001C01D9260
:10004000A336B207E1F78FD090C0DACF1F920F929C
:100050000FB60F921124829B04C01092620010927E
:1000600061000F900FBE0F901F9018951F920F9276
:100070000FB60F9211248F939F93839B06C081E04C
:1000800090E090936200809361009F918F910F9018
:100090000FBE0F901F9018951F920F920FB60F92E0
:1000A00011248F93B09B05C081E080936000909AEB
:1000B00001C090988F910F900FBE0F901F901895D0
:1000C0001F920F920FB60F9211248F93869B05C03B
:1000D00082E080936000919A01C091988F910F9077
:1000E0000FBE0F901F9018951F920F920FB60F9290
:1000F00011248F93C89B05C083E080936000D99A38
:1001000001C0D9988F910F900FBE0F901F90189536
:10011000B898D09881B3837B81BB81B3836081BB66
:10012000D19A82B38C6482BBC09AD89A80B5816020
:1001300080BD209A2E9A8BB788638BBF8BB7806C5B
:100140008BBF7894089533E021E041EF009751F0A0
:1001500010BE33BF29BF42BF08B600FEFDCF28BF87
:0E0160000197F4CF0895D4DFFFCFF894FFCFBE
:00000001FF
