:1000000014C024C033C021C020C01FC01EC01DC0EA
:100010001CC01BC01AC044C018C07EC016C015C08A
:1000200014C013C012C064C04FC011241FBECFE55E
:10003000D1E0DEBFCDBF20E0A0E6B0E001C01D9260
:10004000A936B207E1F7EFD1F4C1DACF1F920F92D0
:100050000FB60F921124829B04C010926700109279
:1000600066000F900FBE0F901F9018951F920F9271
:100070000FB60F9211248F93839B0CC009B601FE1B
:1000800005C089B78D7F89BFC19804C089B78260D8
:1000900089BFC19A8F910F900FBE0F901F90189536
:1000A0001F920F920FB60F9211248F93B09B05C031
:1000B00081E080936300909A01C090988F910F9097
:1000C0000FBE0F901F9018951F920F920FB60F92B0
:1000D00011248F93869B05C082E080936300919AE0
:1000E00001C091988F910F900FBE0F901F9018959F
:1000F0001F920F920FB60F9211248F93C89B05C0C9
:1001000083E080936300D99A01C0D9988F910F90B2
:100110000FBE0F901F9018951F920F920FB60F925F
:1001200011248F939F93809168008F5F8093680064
:100130009091610080916200981304C012BE89B74B
:100140008D7F89BF1092680010926100109260004C
:100150009F918F910F900FBE0F901F901895B89898
:10016000D09881B3837B81BB81B3836381BB87B329
:10017000826887BB8AB386608ABB82B38C6482BB89
:10018000C09AD89A80B5816080BD209A2E9A8BB78C
:1001900088638BBF8BB7806C8BBF089593B79360D8
:1001A00093BF86BF80B7826080BF89B7816089BFF7
:1001B0007894089533E021E041EF009751F010BEAC
:1001C00033BF29BF42BF08B600FEFDCF28BF01974D
:1001D000F4CF0895959ADA9A949AC79A0895672B5E
:1001E00069F5009711F418BA08958130910511F45A
:1001F00081E050C08230910511F482E04BC0833021
:10020000910511F483E046C08430910511F484E037
:1002100041C08530910511F485E03CC086309105E0
:1002200011F486E037C08730910511F487E032C0C1
:10023000089711F480E12EC081E12CC0009711F4E1
:1002400080E228C08130910511F481E223C0823020
:10025000910511F482E21EC08330910511F483E20E
:1002600019C08430910511F484E214C085309105E1
:1002700011F485E20FC08630910511F486E20AC0C0
:100280008730910511F487E205C0089711F480E3E7
:1002900001C081E388BB0895DA9A92B39F7C92BB38
:1002A000C798813021F0823011F0833071F480934F
:1002B000620084E690E07EDF6091620070E080E0A2
:1002C00090E08DDF84E690E075DF80916200089514
:1002D000949A9598DA98C798813011F483E003C016
:1002E000823069F487E08093620084E690E062DF08
:1002F0006091620070E080E090E071DF0AC08330BE
:1003000059F48AE08093620084E690E053DF81E054
:1003100088BB84E690E04EDF809162000895959A54
:10032000DA989498C798813011F482E007C082303F
:1003300011F484E003C0833079F485E08093620097
:1003400084E690E037DF6091620070E080E090E04A
:1003500046DF84E690E02EDF809162000895C79A20
:1003600092B39F7C92BBDA98813011F483E007C08E
:10037000823011F486E003C0833079F489E0809301
:10038000620084E690E016DF6091620070E080E039
:1003900090E025DF84E690E00DDF80916200089513
:1003A000809164009091650090936700809366004F
:1003B000809166009091670082309105D9F060F4D9
:1003C0000097A9F0019751F58091630065DF809354
:1003D000620082E090E01DC08330910599F004979F
:1003E000E9F480916300BBDF80936200089581E0AF
:1003F00090E00FC0809163006BDF8093620083E028
:1004000090E007C0809163008ADF8093620084E0FF
:1004100090E09093650080936400089510926500C9
:100420001092640008959BDE80916200B7DEB8DF11
:06043000FECFF894FFCF9F
:00000001FF
