:1000000014C02CC03BC021C020C01FC01EC01DC0DA
:100010001CC01BC01AC04CC018C086C016C015C07A
:1000200014C013C012C06CC057C011241FBECFE54E
:10003000D1E0DEBFCDBF20E0A0E6B0E001C01D9260
:10004000A636B207E1F72CD130C1DACF823011F0F9
:10005000833019F481E08093600008951F920F921D
:100060000FB60F921124829B04C01092650010926B
:1000700064000F900FBE0F901F9018951F920F9263
:100080000FB60F9211248F93839B0CC009B601FE0B
:1000900005C089B78D7F89BFC19804C089B78260C8
:1000A00089BFC19A8F910F900FBE0F901F90189526
:1000B0001F920F920FB60F9211248F93B09B05C021
:1000C00081E080936100909A01C090988F910F9089
:1000D0000FBE0F901F9018951F920F920FB60F92A0
:1000E00011248F93869B05C082E080936100919AD2
:1000F00001C091988F910F900FBE0F901F9018958F
:100100001F920F920FB60F9211248F93C89B05C0B8
:1001100083E080936100D99A01C0D9988F910F90A4
:100120000FBE0F901F9018951F920F920FB60F924F
:1001300011240F900FBE0F901F901895B898D0986B
:1001400081B3837B81BB81B3836381BB87B38268C7
:1001500087BB8AB386608ABB82B38C6482BBC09A39
:10016000D89A80B5816080BD209A2E9A8BB788631B
:100170008BBF8BB7806C8BBF089583B7836083BFC1
:100180008091600086BF89B7816089BF089533E0A0
:1001900021E041EF009751F010BE33BF29BF42BFAD
:1001A00008B600FEFDCF28BF0197F4CF0895DA9A74
:1001B00092B39F7C92BBC79822E030E030936300FB
:1001C00020936200811102C081E002C0813019F4E5
:1001D0008093600008953ACF949A9598DA98C798DA
:1001E00023E030E03093630020936200811102C06D
:1001F00081E002C0813019F480936000089526CF19
:10020000959ADA989498C79824E030E03093630088
:1002100020936200811102C081E002C0813019F494
:1002200080936000089512CFC79A92B39F7C92BBCF
:10023000DA9825E030E0309363002093620081116A
:1002400002C081E002C0813019F4809360000895FB
:10025000FDCE80916400909165008230910581F01F
:1002600030F40197A1F480916100A1DF10C08330C8
:10027000910551F0049759F480916100D5DF07C0D2
:1002800080916100A9DF03C080916100B9DF809196
:1002900062009091630090936500809364000895DC
:0E02A0004DDF6BDF7894D5DFFECFF894FFCFF3
:00000001FF
