:1000000014C024C037C021C020C01FC01EC01DC0E6
:100010001CC01BC01AC048C018C082C016C015C082
:1000200014C013C012C068C053C011241FBECFE556
:10003000D1E0DEBFCDBF20E0A0E6B0E001C01D9260
:10004000A936B207E1F7EFD1F4C1DACF1F920F92D0
:100050000FB60F921124829B08C010926700109275
:1000600066009598DA989498C7980F900FBE0F90F5
:100070001F9018951F920F920FB60F9211248F9315
:10008000839B0CC009B601FE05C089B78D7F89BF6F
:10009000C19804C089B7826089BFC19A8F910F90BF
:1000A0000FBE0F901F9018951F920F920FB60F92D0
:1000B00011248F93B09B05C081E080936300909AD8
:1000C00001C090988F910F900FBE0F901F901895C0
:1000D0001F920F920FB60F9211248F93869B05C02B
:1000E00082E080936300919A01C091988F910F9064
:1000F0000FBE0F901F9018951F920F920FB60F9280
:1001000011248F93C89B05C083E080936300D99A24
:1001100001C0D9988F910F900FBE0F901F90189526
:100120001F920F920FB60F9211248F939F9380917D
:1001300068008F5F809368009091610080916200F9
:10014000981304C012BE89B78D7F89BF10926800D2
:1001500010926100109260009F918F910F900FBEDE
:100160000F901F901895B898D09881B3837B81BB6E
:1001700081B3836381BB87B3826887BB8AB38660A0
:100180008ABB82B38C6482BBC09AD89A80B58160E6
:1001900080BD209A2E9A8BB788638BBF8BB7806CFB
:1001A0008BBF089593B7936093BF86BF80B782607B
:1001B00080BF89B7816089BF78940895959ADA9A4B
:1001C000949AC79A089528B3277828BB672B81F59E
:1001D000009711F488B361C08130910511F4C69A7B
:1001E00008958230910531F18330910519F488B377
:1001F000806653C08430910511F4C49A0895853007
:10020000910519F488B3806548C08630910519F4CA
:1002100088B3806342C08730910519F488B3806742
:100220003CC0089711F4C39A089588B3886435C018
:10023000009711F4C59A08958130910519F488B397
:1002400084642BC08230910519F488B3846225C080
:100250008330910519F488B384661FC084309105FA
:1002600019F488B3846119C08530910519F488B3F5
:10027000846513C08630910519F488B384630DC07A
:100280008730910519F488B3846707C0089719F47B
:1002900088B38C6002C088B38C6488BB0895CF9308
:1002A000DF93EC011C161D067CF461E070E0CE01CA
:1002B0008ADF2FE784E89EE1215080409040E1F7FB
:1002C00000C000002197EECF60E070E080E090E099
:1002D000DF91CF9178CFDA9A92B39F7C92BBC79887
:1002E000813021F0823011F0833031F4809362004C
:1002F0008091620090E0D3DF809162000895949A2B
:100300009598DA98C798813011F483E007C082305D
:1003100011F487E003C0833039F489E080936200F0
:100320008091620090E0BBDF809162000895959A11
:10033000DA989498C798813011F482E007C082302F
:1003400011F484E003C0833039F485E080936200C7
:100350008091620090E0A3DF809162000895C79AC7
:1003600092B39F7C92BBDA98813011F483E007C08E
:10037000823011F486E003C0833039F489E0809341
:1003800062008091620090E08ADF809162000895AF
:10039000C19B48C080916400909165009093670074
:1003A000809366008091660090916700823091058D
:1003B000C9F060F4009799F0019781F5809163008E
:1003C0008ADF8093620082E090E023C08430910550
:1003D000C9F080F0059711F580916300EFCE81E0C0
:1003E00090E017C0809163008ADF8093620083E011
:1003F00090E00FC0809163009ADF8093620084E0F8
:1004000090E007C080916300AADF8093620085E0DE
:1004100090E09093650080936400089510926500C9
:100420001092640008959FDE80916200BBDEB0DF11
:06043000FECFF894FFCF9F
:00000001FF
