:1000000014C02EC02DC02CC02BC02AC029C028C0AF
:1000100027C026C025C043C023C022C021C020C0A5
:100020001FC01EC01DC01DC01BC011241FBECFE5B8
:10003000D1E0DEBFCDBF10E0A0E6B0E0E6E3F2E045
:1000400002C005900D92A236B107D9F720E0A2E6D2
:10005000B0E001C01D92AE36B207E1F7E8D0E9C0CA
:10006000CFCF1F920F920FB60F9211248F939F93B1
:10007000C89B06C085E090E090936700809366007F
:10008000C99B06C084E090E090936700809366006F
:100090009F918F910F900FBE0F901F9018951F92F8
:1000A0000F920FB60F9211248F939F93B09B06C0AF
:1000B00081E090E09093630080936200B19B06C062
:1000C00082E090E09093630080936200B29B06C050
:1000D00083E090E090936300809362009F918F9102
:1000E0000F900FBE0F901F9018958FEF87BB88E37E
:1000F00081BB1ABA80B5876080BD84B1836084B942
:100100007894089522E029BF21E030E03093650023
:100110002093640010926D0010926C0012BE20912A
:100120006C0030916D00821793071CF022B322BB44
:10013000F6CF19BE1092650010926400089588E011
:1001400082BB88EC90E0DEDF12BA88EC90E0DACF78
:1001500080E182BB88EC90E0D5DF12BA88EC90E0B9
:10016000D1CF80E282BB88EC90E0CCDF12BA88EC81
:1001700090E0C8CF672B69F5009711F418BA08957D
:100180008130910511F481E050C08230910511F465
:1001900082E04BC08330910511F483E046C0843087
:1001A000910511F484E041C08530910511F485E09A
:1001B0003CC08630910511F486E037C08730910548
:1001C00011F487E032C0089711F480E12EC081E17C
:1001D0002CC0009711F480E228C08130910511F401
:1001E00081E223C08230910511F482E21EC0833087
:1001F000910511F483E219C08430910511F484E271
:1002000014C08530910511F485E20FC08630910548
:1002100011F486E20AC08730910511F487E205C027
:10022000089711F480E301C081E388BB08955DDF86
:06023000FFCFF894FFCFA0
:02023600640062
:00000001FF
